:20000000183F002069930000FDC90110FDC90110FDC90110FDC90110FDC90110FDC9011063
:1C002000FDC90110FDC90110FDC90110FDC90110FDC90110FDC901103BCA0110A4
:20003C002DE9F04F0820ADF1640DADF810000126ADF8126004A809F051FD914C9DF81400AC
:20005C002070069804F18001A06004F1680007F065FF0028606100F0638304F1740004F507
:20007C00A87107F05BFF0028A06100F058831921002209F073FCA0691621002209F06EFC7D
:20009C00A0691521002209F069FCA0690F21002209F064FCA0690C21002209F05FFCA0691C
:2000BC001D21002209F05AFCA0691C21002209F055FCA0691821002209F050FCA0691721D9
:2000DC00002209F04BFC6F4DA0691A212A4609F045FC4FF4FA600AF085FDA0691A21002279
:2000FC0009F03CFCC8200AF07DFDA0691921002209F034FCA0691621002209F02FFCA0693A
:20011C001521002209F02AFCA0690F212A4609F025FCA0690C212A4609F020FCA0691D2187
:20013C002A4609F01BFCA0691C21002209F016FCA0691821002209F011FCA06917210022E3
:20015C0009F00CFCA0691A212A4609F007FC4FF4FA600AF047FDA0691A21002209F0FEFB9F
:20017C00C8200AF03FFDA0691921002209F0F6FBA0691621002209F0F1FBA069152100224E
:20019C0009F0ECFBA0690F21002209F0E7FBA0690C21002209F0E2FBA0691D212A4609F04F
:2001BC00DDFBA0691C212A4609F0D8FBA06918212A4609F0D3FBA0691721002209F0CEFB2B
:2001DC00A0691A212A4609F0C9FB4FF4FA600AF009FDA0691A21002209F0C0FBC8200AF0F9
:2001FC0001FDA0691921002209F0B8FBA0691621002209F0B3FBA0691521002209F0AEFBC8
:20021C00A0690F21002209F0A9FBA0690C21002209F0A4FBA0691D21002209F09FFBA069D5
:20023C001C212A4609F09AFBA06918212A4609F095FBA0691721002209F090FBA0691A2101
:20025C002A4609F08BFB4FF4FA600AF0CBFCA0691A21002209F082FBC8200AF0C3FC04F1C3
:20027C005C0004F18C0107F059FE2061002800F05582D7490AF0DAFD002840F04E8203E0CA
:20029C00080200200000408060690721002209F065FB60690621002209F060FB04F150053C
:2002BC000021284600F050FA04F5847041F288320423C849E56008F099FF00271F200621E5
:2002DC00676009F0F1FB8DF85260B8468DF853605020ADF83E004FF44875ADF83C804FF4F2
:2002FC007A73ADF842803146ADF840500DF15202ADF8443040F2053005F008FA40F20630B1
:20031C0002210FAA05F002FA04F1E9024FF442701E2105F0FBF904F1380240F20730072137
:20033C0005F0F4F94FF4447031460DF1530205F0EDF940F2113002210DF13E0205F0E6F97B
:20035C0040F21230022110AA05F0E0F940F2133002210DF1420205F0D9F94FF445700221A6
:20037C0011AA05F0D3F9D649032009F063FA0620A02109F099FB0720A02109F095FB082040
:20039C00A02109F091FB0920A02109F08DFBCDF83880B1468DF856804FF481608DF8549034
:2003BC0004218DF855900EAA8DF8579009F062FB4FF48060314615AA09F05CFB40F20240FB
:2003DC0031460DF1550209F055FB40F2034031460DF1560209F04EFB40F2064031460DF17B
:2003FC00570209F047FB032009F096FC042009F093FCCC48CC4A132109F02CF94FF0040A2A
:20041C000820CA4DADF81C002878ADF81EA08000089007A809F062FB00B9099FC44883466A
:20043C00876087B12E7846B14FF6FF713F1F404627F8041F761EB870FAD1BE4A0BF114006A
:20045C00112109F007F948468DF85BA002278DF8580003268DF85970B7498DF85A600DF18D
:20047C00460340460A6809791A6016AA1971494607F0A4FA484649460DF1590207F09EFAB0
:20049C0049460DF15A02384607F098FA49460DF15B02304607F092FA504605210DF146026B
:2004BC0007F08CFA04F12800AF78CBF8040027BB04F1240095F80190EE78686218200AF01D
:2004DC00A0F8071C19D0514642460AF077FB48460AF01AF838727E7287F80A8005F1480056
:2004FC00F86005F158033B6105F120027A610AF098F8924A394609F0BBF90C200AF081F877
:20051C00071C0BD0012152460AF04CFC04F14800B8600AF086F8394609F08CFE01201021A4
:20053C0009F014FC0220102109F010FC844942F22F0009F003FF04F5E8760820ADF80000EF
:20055C000A27ADF802704FF0FF350195684609F0C5FA002840F0C98040460D900827ADF830
:20057C0028700925ADF82A500AA809F0B7FADDF830900028CDF8349040F0B280BDF82C0095
:20059C000125102858D120789DF82E10884253D1484601884FF6FF728A421DD00178B02987
:2005BC0014D14D46687816280BD16888394609F0E9FD30B9012009F0ABFE0D984546206201
:2005DC003AE0297905F1080000F000FD012533E0F96100009DAB0000408800092CD3276A1C
:2005FC0057B360787B88401C607097F804B0189310200AF006F807F1080A071C1CD002217C
:20061C0015220AF0CFFB1898388187F80AB0C7F80CA00AF006F84B4A394609F029F9074642
:20063C00162F09D0042F07D0206A4088414609F0A9FD384609F06CFE0D98002850D0002D03
:20065C004ED048460AF085F94AE0E068054600F07FF8854208BF474602D087680AF06DF9FA
:20067C00381CB9463CD007887F1E2BD07F1E2CD18078E56AF0B1801E27D1022017A908F0E6
:20069C0043FE9DF85C008DF84F809DF85C30705577198DF84E300DF14E0087F8018004F0FF
:2006BC00C5FAE16AB1F1150001F10101E1620CD105F086FC404617A908F026FE05E0C04685
:2006DC0039AF0000807806F075FE0820ADF80800CDF80C900527ADF80A7002A809F0FEF99A
:2006FC00E06800F039F80028AFD06088C108FFF424AF20F0040060800AF0B0FB02200DF19E
:20071C005D0108F001FE00287FF417AF032001210DF15D0207F052F90FE7FEE7FEE7FEE77E
:20073C00FEE7C046340B0020B8B60000AC060020640C0020C4B6000006B7000045AF000058
:20075C0017AF000089AD0000DFF800F0F1B80110DFF800F00DBF0110DFF800F00FC10110B4
:20077C002DE9F04F0120ADF15C0DADF81A000827ADF8187006A809F0B1F900263546DF4CA8
:20079C008DF854509DF81C006070A6700898E0614FF6FF70A082384609F033FF5FEA0008CC
:2007BC000CD0012112220AF0FDFA09F03AFF15A90123D64A0091414609F078F89DF854005C
:2007DC00DFF86C83324601232070414604F1A80008F00CFD04F1CC0032460223414608F009
:2007FC0005FD04F1F00032460423414608F0FEFC042031461022E07004F1480007F08EFE01
:20081C0004F158003146102207F088FE2562267266720720E67204F148021021A07202202F
:20083C0009F046FA04F158020320102109F040FA042004F12002014609F03AFA19E0A078CD
:20085C00B4F84050B4F84230B4F84420B4F8461006280ED1ADF84250ADF84430ADF84620A8
:20087C00CC48ADF848100AF0C7FB012010A907F013FE0A20ADF80A00ADF808704FF0FF3544
:20089C00039502A809F02AF9002840F0E38130460C90ADF824700925ADF8265009A809F0E4
:2008BC001DF9DDF82C900028CDF8309040F0D281BDF82800102840F0C18160789DF82A1017
:2008DC00884240F0BB814D4628884FF6FF71814200F0AC812B78A23B00F091812E3B40F0D3
:2008FC00AD81A878B046002800F05E81801E00F03681401E012840F20B81801E00F0B98050
:20091C00401E7FD0401E60D0083800F06981801E40F06B8194F83E30A888052BADF8340079
:20093C004BD001208DF83E009A480AF065FB94F83E00012820D004281ED003280DD0022831
:20095C000BD00C98C188ADF836100189ADF838104189ADF83A1080892BE0B4F84000B4F8EC
:20097C004250ADF83600B4F84430ADF83850B4F84600ADF83A301CE0B4F84000E98888427D
:20099C00D8BF081CADF836002989B4F842008842D8BF081CADF838006989B4F844008842F7
:2009BC00D8BF081CADF83A00B4F84610A889814200DC0146ADF83C1001E08DF83E60B24A77
:2009DC000DA8122109F043FA0FE1B0480AF014FB6878002840F00981E888E0822889208304
:2009FC00688960836B480AF06BF9002840F0FD80A56A002D00F0F9802B68E08A218B628BE6
:200A1C009847F2E0B5F804A00A2009F0FAFD5FEA00080AD0012115220AF0C4F9A8F808A01B
:200A3C0009F0FFFD414609F005FCBA483146062207F074FDE68226836683A8796073554890
:200A5C000AF0DAFA91480AF0D7FA4FF001084FF6FF706379A0824BB9A879082814BF0420C2
:200A7C000520A070404609F0EDFFBEE00320A070BBE06878002843D1A649281D02680A602A
:200A9C00808888800623A3706889A082E889E082288A2083688A6083E878207394F83E0021
:200ABC00012818BF022808D11F2008F0B5FD4FF47A714143374808F06DFF95F803B0B5F8AC
:200ADC000AA0142009F09DFD5FEA000800F09080012114220AF066F988F808B02D1DC8F845
:200AFC000C50A8F810A0042088F8120009F099FD814A414608F0BCFE7AE0C046AC060020B3
:200B1C00687831286AD12671042022E0B3AD00006878002862D1A878618AA278032813D0BA
:200B3C002079657931B9012814BF6671267107E061AA0000054303D0724808F02BFFA278CB
:200B5C00072AE1D1062004E0062A06D0207910B90320A0704CE00220FBE70720F9E76878DA
:200B7C0000283BD1EB78A078E179ABB9022818D0072816D0062802D16179012911D10328B3
:200B9C000FD060480AF09CF858B9012009F05AFF07E0C046780700205F4A404608F0CEF926
:200BBC0068706878D0B920E06878B8B9564A0220102109F097F8554A0320102109F092F896
:200BDC005648ED1C29680160AB888380544A01252846A179A57008F0B1F948B1A77007E030
:200BFC00A888464A102109F019F9B8F1010F25D1606A18B3016809B3A07888471EE06879AE
:200C1C0013281BD12889012808D1A07B022805D11E480AF0F1F908F0C5FA0FE0052008F0B6
:200C3C00FBFC0146194808F0B5FE07E06888C00B04D3374A0420014609F054F80C9848B107
:200C5C00ADF810700320ADF81200CDF8149004A808F044FF208A65792179420831D320F0A9
:200C7C00010055EA010320822BD08DB92D49207A8DF84A00657A8DF84B500A6813AB1A60A9
:200C9C008988998007E0C0463FAF00009C07002003208DF84A00A07AE57A194A8DF85200CB
:200CBC0006218DF853500DF14A0008F071FB616A30B1A77021B1086810B109683846884799
:200CDC00208A810807D3184920F002002082304607F0E2FB208AC108FFF4CBAD20F004009A
:200CFC00A57B2082681E3FF4AAAD401E7FF4C1AD08F058FABDE5C0467BAD000063AF00009B
:200D1C0057AF000054070020F406002004070020CC060020E406002033070020D80600209D
:200D3C0014070020DE060020EA0600202DE9F84F04462068002800900CD43C2190FBF1F1B7
:200D5C0000290DDDD4F804806FF00040401A40450DDA30E13C21C0F13B00B0FBF1F0414246
:200D7C00D4F80480C1F10040404500F32481009811EB0808A0EB8110C4F8048000EB81008C
:200D9C00206000900DD43C20B8F13C0F98FBF0F10DDBD4F808906FF00040401A48450DDAC9
:200DBC0009E13C20C8F13B01B1FBF0F04142D4F80890C1F10040484500F3FD8011EB09096C
:200DDC00A8EB8118C4F8089008EB8108C4F804800CD41820B9F1180F99FBF0F30CDBE1682B
:200DFC006FF00040C01A88420CDAE4E01820C9F11701B1FBF0F04342E168C3F100408842C8
:200E1C0000F3D98020696269DFF8B4C1A9EB03194FF0640B59184FF4C87EA9EBC309DA46F2
:200E3C00C4F80890ADE0AA18A0EBC50000296261A0EB850040F3858001284FF0000311D122
:200E5C0012F0030F0ED102F26C7797FBFAF505FB0AF57E1B05D197FBFEF505FB0EF57F1B9B
:200E7C0000D1012385005CF805605CF805709E198E423B4461DB20610228E16002F26C7E4E
:200E9C004FF0000312DB12F0030F0FD102F26C77564697FBF6F070433E1A06D14FF4C876C5
:200EBC0097FBF6F070433F1A00D101236544286B08181818401EE061DFF808A12F6BAEF1B9
:200EDC000100461040F26D15C91900EB967C55435B184FF4C87790FBFBF605EBAC05002141
:200EFC00072290FBF7F0AD1B401901275D1E2D180B46A5F5E675EE17781941EB060104F02F
:200F1C004FFF00994FF4616000FB09F0002B0AFB050000EB8810A0EB880008441146B8BFF1
:200F3C00C91D294AA1615168B2F9002045F260434018C01A2262BDE8F88F401CC91A20613A
:200F5C001FE0401E0025012812D112F0030F0FD102F26C7797FBFBF303FB0BF3FE1A06D1B1
:200F7C007346764697FBF3F37343FF1A00D1012500284CBF0B23031C20615CF823305B1887
:200F9C00E91800280BD40C230C2890FBF3F50CDB6FF000435B1B9342BFF645AF0AE0C0F13F
:200FBC000B030C25B3FBF5F35D42C5F1004393427FF739AFE1604FF0FF30BDE8F88FC04694
:200FDC002CB40000805101004413002010B50446034803681BB10A4601202146984710BDB7
:040FFC006813002056
:201000003C000000000000000000000034100000000000000000000001000000000000004F
:1C10200000000000000000000000000001000000000000000800000000000000AB
:20103C003400000000000000000000006810000000000000000000000100000000000000E7
:14105C00010000000000000000000000080000000000000077
:2010700030000000000000000000000098100000040000000000000001000000FFFFFFFF87
:10109000FF00000001000000080000000000000048
:2010A0002C0000000000000000000000C4100000040000000000000001000000FFFFFFFF2F
:0C10C000FFFFFFFF080000000000000020
:2010CC0038140000E410000095A1011091A70110A1C2011009B2011041B8011000000000EA
:0810EC000000000032000000CA
:2010F400280000000000000000000000141100000000000000000000FFFFFFFF0000000093
:081114000800000000000000CB
:20111C00341400003011000065C2011069C101101BC2011091BA011000000000000000006D
:04113C00300000007F
:20114000341400005411000071C20110A5B6011099BF011045B601100000000000000000BD
:04116000310000005A
:201164002400000000000000000000008011000000000000000000000000000008000000AE
:041184000000000067
:20118800240000000000000000000000A41100000000000000000000000000000800000066
:0411A8000000000043
:2011AC00240000000000000000000000C8110000000000000100000000000000080000001D
:0411CC00000000001F
:2011D000000000009013002004000000000000000000000020000000701000003000000068
:2011F0001C110000981300200400000000000000000000000C00000030130000180000007C
:2012100040110000A0130020040000000000000000000000240000004813000018000000FF
:2012300000000000A813002004000000000000000000000010000000A01000002C000000D3
:20125000CC100000B013002004000000000000000000000020000000641100002400000002
:20127000FFFFFFFFB81300200400000000000000000000002800000088110000240000008E
:20129000FFFFFFFFC0130020040000000000000000000000580000003C1000003400000073
:2012B000FFFFFFFFC813002004000000000000000000000010000000601300001800000088
:2012D000FFFFFFFFD01300200400000000000000000000001C000000AC11000024000000FE
:2012F000FFFFFFFFD813002004000000000000000000000038000000F4100000280000006F
:20131000FFFFFFFFE013002004000000000000000000000054000000001000003C0000000A
:1813300018000000000000000000000040130000080000000000000032
:1813480018000000000000000000000058130000080000000000000002
:18136000180000000000000000000000701300000800000000000000D2
:081378000100000028B700008D
:0413800030BF7047C3
:041384000100000064
:0413880000000E0053
:04138C0000000F004E
:041390003200000027
:041394000100000054
:04139800BC12002063
:04139C00000200004B
:0413A0000000000049
:0413A400FDC901106E
:0413A8000000000041
:0413AC00000000003D
:0413B0000800000031
:0413B4000000230012
:0413B80030110020D0
:0413BC00010000002C
:0413C000D412002023
:0413C400080000001D
:0413C8000000000021
:0413CC00000000001D
:0413D0000000000019
:0413D400080000000D
:0413D8000000000011
:0413DC00000000000D
:0413E0000100000008
:0413E400C81100200C
:0413E80006000000FB
:0413EC0001000000FC
:0413F0009810002031
:0413F40000000000F5
:0413F80000000000F1
:0413FC0000020000EB
:0414000000000000E8
:0214040070472F
:021406002A00BA
:021408000100E1
:02140A002500BB
:02140C003000AE
:02140E003100AB
:021410003200A8
:021412000100D7
:0114140001D6
:0814180003000000DCB6000037
:081420000000000000000000C4
:0414280000000100BF
:04142C0000000300B9
:0414300083C4011060
:041434003C14000064
:041438003C14000060
:04143C0000000000AC
:041440009000000018
:041444009000000014
:0414480000000000A0
:04144C00D412002096
:0414500039AC0000B3
:041454002000000074
:04145800A4B6000036
:04145C0050B6000086
:0414600009C30110AB
:04146400DF8B00001A
:04146800578F00009A
:04146C0095C801100E
:0414700097C8011008
:041474000000000074
:04147800AFB200000F
:04147C0088B500002F
:04148000A0B5000013
:0414840070B500003F
:0214880008005A
:02148A00090057
:02148C0001005D
:02148E0000005C
:01149000015A
:041494000000000054
:041498000000000050
:04149C00000000004C
:0414A0000000000048
:0414A4001DB0000077
:0414A800219A000085
:0414AC00D9A50000BE
:0414B000D19D0000CA
:0414B400339F000062
:0414B8007995000022
:0414BC000D87000098
:0414C000CFAD0000AC
:0414C400AD8D0000EA
:0414C8000DC801103A
:0414CC001DC8011026
:0414D0000800000010
:0414D40024000000F0
:0414D80018000000F8
:0414DC0028000000E4
:0414E00020000000E8
:0414E4003C000000C8
:0414E8000C000000F4
:0414EC0034000000C8
:2014F00021B1C968814201D1012070470020704738B5054609F056FD2C680CB121682960AE
:2015100009F048FE204632BDF8B506460F46346800201546386034B909F044FD376095B126
:20153000012129700FE005B1287009F03BFD00E0246821680029FBD1BC4203D109F02AFE95
:201550000020F2BD276009F025FE0120F2BDF8B50C68054609F026FD0026074634B100F069
:2015700009F800B126462468002CF8D101F083F83046F2BD21462846B2E700213022DFF873
:20159000340C4A43104490F82F20130603D5491C0829F3D3002070472DE9F8438046894639
:2015B000164600273021DFF80C0C7943441804F12C05B5F90000484508D1214600F035F981
:2015D00020B1300008D0E878304205D17F1C082FE8D30020BDE8F2832046FBE738B5042852
:2015F0001BD1DFF8E04A04F1E405284609F025FB98B1284609F0C8FCDFF8BC1B0A68504362
:20161000B0F5967F09D2284609F0C4FC052008F031FD0120E07701F003F9002032BD70B51A
:2016300000F026FADFF8945B064695F8340020EA040485F834400024286820B19C3009F06A
:20165000FCFA00B10124686820B19C3009F0F5FA04431FD195F83400002808BF002C19D15C
:20167000A86AD0B190F820108A0707D5C46900F032FBA86A00220221A04708E0446900F095
:201690002AFBA86A00224FF400030021A0470020A86270BD304601F04FBD70BDF8B50023CC
:2016B0009E460AB94FF0010E002600291CBF8D6A002D6FF05047DFF804CB19D0446ABCB137
:2016D000C968C368994207D0DCF8003099420CBFDCF80860DCF80C60A408A4EB9504A61B31
:2016F000BE4229DA06F18056B6F1805F24D90123002A1CBF546A002C1BD0816AC9B1D268EA
:20171000C0680026904207D0DCF8000082420CBFDCF80860DCF80C60C6EB9406A6EB910670
:20173000BE4209DA06F18056B6F1805F04D94FF0010E03EA0E00F2BD0020F2BD884201D321
:2017500000207047012901D101207047022070472DE9F047DFF86C790E46B96A8046FFF7B9
:20177000BFFE002400254FF0010948B1B86A90F82E003146FFF7E2FFA146040018BFBD6A02
:20179000786AB0B1D7F824A010E0514600F04DF850B19AF82E003146FFF7D0FF4FF0000962
:2017B00008B10CB955460446DAF800A0BAF1000FEBD1B9F1000F18BF022034D1002C18BF14
:2017D000002D2FD0B86A2E4686420CD1B96A00F02CF840B1B86A90F82F1041F0080180F8CF
:2017F0002F107E6A5EB1314600F01FF828B196F82F0040F0080086F82F003668F2E7DFF85C
:20181000BC0900F13201C0F82880C0F82C8004F001048A7842F001028A70AA8D02860C70A6
:20183000012000E00020BDE8F087404658E62DE9F04F8DB00446DDF85880DFF83C7B002060
:20185000787388F80000894693469A46FFF795FE050042D001F0F3FAA8853868A04205D182
:20187000387BC10744BF00F0FE003873DAF80000A8629BF80C0000F00F0002280CBFDBF8FF
:2018900008000020B9F1000F686222D009F19C0009F0D3F9002857D101F04AFA040021D1C5
:2018B000706AF8B101F049FA0A90B06A20B1726AB16A00F055F838B9B06A98B9726A6946C1
:2018D0002846FFF7EBFE68B1706A286075620120787328460DB0BDE8F08F012088F800005D
:2018F0000020F7E7787B0028F3D114B9746A00E024685CB3226800F032F80028F8D02068B9
:20191000286025600220E3E7787B0028E1D1746A24B100E0246820680028FBD19BF80C10A7
:2019300001F08F010229D4D12CB1002200F017F80028CED108E0B06A0028CAD0B16A002280
:2019500000F00EF80028C4D10220C7E79AF804104846FFF7FDFE0128D6D10420B8E72146D5
:2019700028469BE670B5002008F082FEDFF854670FF22D51002200F067FED6E9004509F026
:20199000F1F8844231BF041B401E041B641C307EDFF8E859240BF46000281CBF697D012920
:2019B00003D0307CC002A0422BD20121317600206875DFF8CC0901680A0622D540F60900D6
:2019D00028800021687B696000F0AAFC6873287B00F0F000287309F0E5FADFF8A8194A69D0
:2019F00022F002024A616FF002020A610D600B699C07FCD50A614A6942F002024A6109F0FB
:201A1000C9FB0020C6E90000F06007F0A1FE287D20B9F16B01F1400009F0E4FADFF8201C47
:201A30000020086070BD10B500F022F8DFF858190A7814430C7009F0ADFB832010BD70B53F
:201A500000F016F80646DFF840090178012559B1027822EA04040470007820B90821DFF810
:201A7000E40B09F0CBFA832500F035F9284670BD044609F097BA10B50446207B00F00F000B
:201A900002281DD101F059F9A168081ADFF83416C96B8008002914BFC96840F6C41101F5A5
:201AB0007A72824238BFB0F1405F09D2401ADFF808170A68B0FBF2F0012802D8012010BD14
:201AD000002010BDDFF8FC250146906A00B9704710B5906A90F82F00C3061CD5506AD0B1F5
:201AF000506A90F82F00C30615D4906AC068536ADC68A0420FD111B1012908D010BDBDE898
:201B100010404FF4004102F1440009F077BA916A11630020906210BD70B5DFF8A865746A4B
:201B30000120FFF7CFFFB16A002944D1002C3BD0E068F16B884218BF4FF4806135D1A068A9
:201B5000FFF799FF050015D0306B98B90120FFF776FF83282FD1F06B783009F01BFA06F1D2
:201B7000E4042946204609F011FA2046BDE8704009F00EBAD4E90401DFF80828536903434D
:201B900053610020D3680B43D360D061A0681060D0690028FCD006F12400FFF7A9FCB06207
:201BB0000020BDE870408DE7022106F14400BDE8704009F023BA70BDDFF80805C16B8A6874
:201BD00001F12803506830B1984218BF0246F9D101E000207047507B10F00F0F02BF488D45
:201BF00040F609018842F4D1012070472DE97043DFF8B00BDFF8CC5408F006FF0446DFF8BE
:201C1000A80B01680668A86A06F4602668B1214089060AD5E862D0E9068949EA0403C0E93B
:201C300006834FF4005100F0DDF834400BD0DFF8EC0B81690C43846105F19400BDE8704395
:201C5000002109F0DBB9BDE8708370B509F0AAF9DFF8C84B0646A06910F4602F2FD0A5698E
:201C7000ED012D0EE80748BF002506D4A80748BF012502D4680748BF0225681D002140B24F
:201C900000F06CFEA169012205F1110082409143A16100F020F804EB8506F06838B154F8FF
:201CB0002500691DF56800224FF00063A847DFF8F81A086828B90220FFF7C1FE01E000F077
:201CD0000AF8A06930B1BDE870400021DFF8D40C09F094B970BD304609F05CBAF8B5DFF85F
:201CF000E45308F085FEAC6A002C024677D0100704D490075FD5286B00285CD10021A96283
:201D1000D4E90401236A40F00A0632401A432262D4E906673243C4E90627DFF88C6AB26871
:201D30008243B2603268D4E904018A4332602146002205F13400FFF7E7FB022100F052F819
:201D5000286B00284BD0E168286BC268914246D1286B90F82F0094F82F10084310F0070046
:201D700018D0C10701D4810707D5286B90F82F1041F0010180F82F1005E0296B91F82F20D5
:201D9000104381F82F000022296B05F13400FFF7BBFB0DE0286BA8622A6BB368D2E90401B2
:201DB0000343B3602A6B3368D2E904010B43336000222A6313E0D4E9040102420FD0EC6214
:201DD000D4E90401236A02401A432262D4E906011043C4E906014FF4804100F003F8BDE822
:201DF000F14099E605F1440009F008B9B548B0F93810B0F93A00814204BF0120FFF71FBEE4
:201E100070470720FFF70BBCF8B506460F46D6F868C014461D46BCF1000F18BFE047D6E99D
:201E3000180104400D400020854208BF844217D0802239463046FFF7AFFBC6E91C4538B15D
:201E5000D0E90623A243AB43C0E90623B16E41600020B06606F14000BDE8F24009F0C2B874
:201E7000F1BD704780B509F0C7F8964A0146D06B126CBDE80840104780B592480FF20D526D
:201E9000016C914206D10120FFF7CDFDBDE8024000F0CBBCBDE804400421443009F0AEB8FB
:201EB00070B584B008F0A4FD864D0FF2E1410446286C884222D10022DFF8841BDFF85C695B
:201ED00005F1780009F078F80120FFF7ACFD012068764FF6FF710020A876B08B884208D18B
:201EF0000221ADF80010684608F0C4FABDF80800B083FFF761FE08B9FFF70EFEDFF83C0C6F
:201F1000044203D04FF00051FFF76CFF7FBD80B508F06EFD800707D5BDE804404FF4805173
:201F3000DFF8200709F06AB801BD10B5654C0146E06B4268506838B1012908BF08F0C2F9C3
:201F5000E06B416848688047E06B42689068002804BFD168002914D0DFF8901B08680028CE
:201F7000FAD000230B60906800B18047E06B4068C06800B18047BDE81040DFF8B00C08F076
:201F900079BA10BD70B54F4D6C6B002C7DD0A168202000291CBFC2B2002A7CD00A8840F621
:201FB00003039A421FBF40F604039A424968401EEFD16BE000224FF0804304E000224FF0B5
:201FD000805300E0002394F82F00010706D594F82F0010F0070F18BF43F08073B4F92C10C6
:201FF000E0686668B04708F0DDFF0646688F401CC0F30B0068870020696B81F82F0005F112
:202010003400FFF775FAFFF766FEB5F93A00B5F93810884239D1E26892F8C210052001B18E
:202030000720FFF7FCFA6548E3680268934208BF426893F8C200002100B91968002583F88D
:20205000C2504AB192F8C20010B182F8C25003E01068884228BF014619B9BDE8704001202F
:20207000EDE411F1010F10D053480268E068B1FBF2F1012998BF0121783008F087FFE068A0
:20209000BDE87040783008F083BF70BDE0681822283005F0FBFE226A0020206260680028E6
:2020B000A1D094F82F1001F00701012906D002293FF480AF04293FF481AF83E700224FF0F3
:2020D000005380E7081E002038B50D46A807DFF8604B18D5FFF756FF606B25F0020510B19F
:2020F00045F0020109E0680702D4606A00285FD004F1E40008F04EFF042104F14400BDE828
:20211000344008F07BBF680752D5012084F82000042007F0AFFF08F025FDC4E90001606A5B
:2021300078B1C568E06B002818BFA84208D095F82000410704D5EB69002204212846984777
:20215000E563E06B4168DFF8EC0A0A780260022007F090FF112005F0F5FC0120A076E06B41
:20217000017C002919BF207E00280E2005F0EAFCE06B844A40688168002904BFC06800281C
:2021900004D00021D161DFF8A40B106040F2FF70DFF8AC14086000219161DFF8B00C50611B
:2021B0000FF21D0020641920BDE8324008F0FCBE31BD0000881C00208C200020EC1F0020C2
:2021D0002DE9F0430546880085B040F195800020FFF7ABFE6B4EDFF8AC0BDFF8549A674FD7
:2021F0000021F161306040F60A08012008F040FA0FF29910C9F84000A7F80080002078804F
:202210000021387B00F0F00038737960787B00F087F87873AA681446618099F8181009B169
:20223000687CA0B1108840F60201884218BFB0F5C15F05D1218A4FF60F400140218204E045
:20225000218B4FF60F4001402183002068746946104605F07BFA684608F020FD40F60401E0
:2022700040F60302606800281CBF0388434518BF934244D08B4218BF0446F3D13FE0288DEF
:20229000A8B100216985E96205F134004278017802F0F00201F0F00142F001020170427000
:2022B00005F128007860787B00F0F00078734FF6FF30A9680A8A02400A82F0690028FCD026
:2022D0000021F16199F81F00012806D107F05EFA0028FBD008F07EFE0CE0012007F0DCFF36
:2022F000012807D0607B00F01BF860730FF23D00C9F84000A868306005B0BDE8F0836760AA
:20231000607B00F0F0006073D9F8240080680088904218BF8842B2D10020C9E90000C6E745
:2023300000F0F00040F0010070470000DFF8202B114200D17047012010B507F0ADFF012816
:20235000DFF8EC4806D10FF245010C4821640D49086010BDDFF8582C10683221B1FBF0F12D
:20237000012998BF0121E434204608F00FFE2046BDE8104008F00CBE142000204420002032
:2023900000000440001004405A2000202DE9F84F07460C466004DFF898681FD508F002FED8
:2023B000F56A0146A5B12F6AB80711D400202862084608F0EFFE6868002818BF002F0AD01F
:2023D000B5F92C10E8686D683A460023A84702E0084608F0DFFE24F4804427E1A0006FF460
:2023F000807940F6020557D596F8200028B1042007F04AFC002086F8200008F0D3FD804637
:20241000B8680188A94218BFB1F5C15F00F026F9D6E900AB0020834508BF824521D0042077
:2024300007F03AFFE8B1D6E9005108F09BFB854231BF451B401E451B6D1C788AF96800EB79
:2024500015308842F86002D209184908F96040F2D171F868A0F5FA70884224BF40F6C411DB
:20247000F96000F0F7FCFFF7A7FB58B1BD6900F0EFF8A847706A18B1192008F09BFD01E036
:2024900044F002047D6900224FF0806300213846A84724F00054C9E0A00709D5FFF772FD3F
:2024B000706B002824F0020401D044F00204BDE060051CD508F076FD756A074695B1F06BB9
:2024D00010B1783008F066FDE868F06300F0D3F808F048FBB0604FF400610FF2A110306495
:2024F00000F006FB0020707724F480649EE020073ED5707F012802D10021717735E0B06AFD
:2025100098BB0120F0760021DFF8AC0B71763064FFF728FA022007F0B7FB112005F0B4FAF0
:20253000F16B087C10B90E2005F0AEFAF07F012804D10021F177052007F0A6FB0020F076DE
:202550003077DFF8780B0178012904D100220270042100F0CDFAB6F93A10B6F93820022060
:20257000914208BF0720FFF75AF824F008045DE0A0040FD5F56A002D1CBF6868002806D028
:20259000B5F92C10E8686D6800222023A84724F400544BE0E00438D5FFF70EFB20B1D7F8A1
:2025B00018C000F055F8E0470022DFF8941400F04BF80020B07701207076B8680188A94219
:2025D00018BFB1F5C15F00F049F800207874B56808F0C8FADFF86825F36B17680421BB42D7
:2025F00008BF00214DB1854231BF451B401E451B6D1C02F108002D0B45500020B06024F477
:202610008054192008F0D6FC10E020040ED5B06A816848880028FAD0B16A88684188012919
:20263000F5D0192008F0C6FC24F4004434B1214606F14400BDE8F44F08F0E0BCBDE8F18F4E
:20265000000004604C1E002006F1780008F0B4BC00224FF0007349463846704705D1028AAB
:202670002D2161F3091202827047028B2D2161F3091202837047384608F08CBDF0B504461E
:20269000080585B07BD5DFF8A865002070760120B077F06B90F820104A0703D5C3690022DC
:2026B000042198470022DFF8F81ADFF8F85AFFF7CBFFDFF8E40B3064F06B406881680029A3
:2026D00004BFC068002804D00021E961DFF85C0628600120FFF729FC0020E86140F60202F8
:2026F000DFF8A00628600020A16848800888904218BFB0F5C15F05D10A8A4FF60F40024096
:202710000A8204E00A8B4FF60F4002400A830120607440F6040240F6030340F60A0C4868D8
:2027300078B3078867451CBF9F42974229D00146F5E7208DA8B100226285E26204F13400F6
:202750004378027803F0F00302F0F00243F001030270437004F128004860487B00F0F000A6
:2027700048736946A06804F0F1FF684608F096FAE8690028FCD00021E961A068286005B0C8
:20279000F0BD00204860487BFFF7CAFD4873706A80680088984218BF9042CAD10020B060E1
:2027B000DFE7000020000E000C10044038B5DFF88044A16A61BB606A78B3617E29B1012037
:2027D000FFF731F9BDE832402FE0A07E28BB08F0E9FB0546606A8068FFF74DF9E17E21B15C
:2027F000DFF8D828012010700DE040B1E4340146204608F0CBFB204608F0CAFB03E0A07FCB
:2028100008B900F00DF82846BDE8324008F0C2BCBDE832400020FFF755B931BD242000206A
:20283000042104F1440008F0E9BB192008F0C2BB30B585B004F038FCDFF8880BDFF8884B8A
:202850000168DFF8EC5341F002010160684608F035FAA078DFF8741B02906A4605F1440085
:2028700006F0B2FF684608F0F9F92178DFF8D42B019100208DF808006B46192105F1780002
:2028900006F092FE684608F019FAE078DFF8B81B02906A4605F1940006F096FF684608F0EA
:2028B000DDF901208DF808006B466078DFF89C2B01901A2105F1C80006F076FE0023002224
:2028D000DFF88C1B05F1E40006F04EFCDFF8E807DFF8802B28640023042105F5847007F04F
:2028F000DDFDDFF8740B4FF6FF7181830021C177C5E9001129766983E96185F82010052020
:2029100028740020DFF8541B08704FF4FA718C488160C16005B030BD10B5818B4FF6FF7280
:20293000914209D00024012202FA04F3194206D1641C64B20F2CF7DB6FF0010010BD9943C3
:20295000818304F10C00DFF8C81B0B6882401A430A600220FFF767F8204610BD70B5064691
:202970000C4608F01FFBDFF8F01A0546C87F420702D58A7F964214D001228B8B02FA06F060
:202990000343DFF88C0B8B830C36016802FA06F621EA06060660006818B914B10220FFF72F
:2029B0004EF8C8E39C1E00202DE9F041DFF82C6C0546706A0C460027844290461AD1FEF76C
:2029D000D9FD18B394F82F0040F0040084F82F007F1C06F12400FEF78BFD0022214606F1F9
:2029F0003400FEF791FD746A5FEA0800E7D13846BDE8F081716A31B1086820B10A68A24241
:202A100001D00968F7E70C4600E02468002CEED02168FEF7B0FD0028F7D0216891F82F0083
:202A300040F0040081F82F0006F134000A6822607F1C0022FEF768FD5FEA0800E8D1D6E7AD
:202A5000ED1C00002DE9F0478246894602F001040327550808F0A6FA19F1010F05F001054E
:202A70008046734E08D1B16A5046FEF739FD00280CBF706AB06A04E0002249465046FEF703
:202A90008BFD70B390F82F100A0629D5B16A884215D190F82F100122A240114380F82F1004
:202AB000002C14BFDFF8380BDFF8380B07F0E2FCA5B1716A2A465046FFF776FF0EE0014627
:202AD0002A465046FFF770FF50B106F1E40008F061FAB07E10B9022100F00AF8832700E0B6
:202AF000042700F0B7F93846BDE8F0871C10044006F1440008F082BA70B504460D4608F0C8
:202B100051FA0646DFF8D40AC16B8C4201D0032070BD407E01280DD1284607F0ABFC044623
:202B3000FFF7D9F804F0FF04012C01D1812070BD022070BDFFF7CFF8012070BD020000405E
:202B5000EC1F0020F0B50646DFF89C0A8BB015460029006818BF002D1C4663D00A78D0407A
:202B7000C0075FD571602846002104F05BFEB56008F018FADFF8747A0546387D02284FDA66
:202B900008B9FFF755FE387DDFF8641A41F82060401C387500F008FB34B903A80FF6882116
:202BB0001C2205F073F903AC2068DFF8481A30600A466068F0600B46207C3074A0693062D2
:202BD00001207074608A7082E06800B10246B261606900B10146F161A06800B103467361C7
:202BF000A02106F1280005F09BFC002106F1400007F07EFB684608F08EF902966B460022F9
:202C1000DFF8F41906F1780006F0AEFA6B460022DFF8E81906F19C0006F0A6FA304602E087
:202C300000F0C2FA00200BB0F0BD000001000706081E0020D0210840F8B5DFF8B0590446EC
:202C5000287D002871D0DFF89469B6F93800B6F93A10884211D000F06BF828B9B16A204642
:202C7000FEF73EFC48B1B06A38B1B0F92C1000224FF0E043204600F0A4F908F093F90746EC
:202C9000DFF86C0901688C4207BF0021016000214160287D401E2875C0B288BB707EF463FD
:202CB00001280FD1FEF7CBFE0220FEF7C8FEFFF7E2FC4FF0FF3104F1400007F0A3FF08F057
:202CD00071F9074606F1440008F08EF906F1780008F062F906F1940008F086F906F1C800F0
:202CF00008F05AF906F1E40008F048F906F5847007F0EEFC207C012804BF0E2004F0C4FE29
:202D1000F06BA04204BF0020F063FFF7B4FC04F1400008F061F904F1780008F02FF904F181
:202D30009C00BDE8F24008F029B9F1BD5100070606F124012046FEF70ABC70B508F032F9A5
:202D5000DFF89828517E29B1DFF8B428146808F021FA14E008F01EFA07F004FF10F50030AE
:202D7000DFF8A028DFF8846841F10001A2FB004502FB01553169002024184D412C4620461D
:202D900070BD000001010E042DE9F04782B082460F4691461D4608F005F98046FEF7EDFB73
:202DB000040046D00AF1780008F0F4F800F047F83087A760202104F12E0787F80090656066
:202DD000308FA085C4F80CA0DDE90A52DFF8380828401140C4E904016A4600207870C4E98E
:202DF0000600214606F12400FEF78EFB08B30AF1C000A18D018000218170787840F08000E6
:202E100078709DF80000012809D1317F00291CBF707E002803D0012100207177307700F0C4
:202E300019F89DF8000008B1FFF7C0FCB4F92C0003E000F00FF86FF00100BDE8F687DFF865
:202E50009C67308F401CC0F30B0070470A00004004000020404608F09DB92DE9FE4FDFF853
:202E7000906780460F4614469A4608F09BF831688146884508BF716801A8029400903A464F
:202E9000029B4046FEF7D3FC040006F1320000900ED18178C6F8288041F00401817000F029
:202EB0003BFA9DF8040002285FD16FF002007DE008F1780008F06EF8DFF82057A08D288723
:202ED000A76004F12E0702980179DFF83C073970C4F804A0C4F80C80DDE90CAB20210AEA80
:202EF00000000BEA0101C4E9040100207870C4E9060002984179012903D1787840F01000DC
:202F1000787000F009FA0098C178042905D10278B6F93010F06A00F01AF908F043F8814632
:202F30000098C078022808F1C00602D100F042F829E0012809D105F1E40008F02BF800F0DA
:202F500039F8A86AF8B900F0E7F90098C078002818BF042826D10DF10502214605F1240025
:202F7000FEF7D2FA20B900F0D7F96FF001001DE0A08D30800021787840F080007870B170E3
:202F90009DF8050010B900F0C7F90DE0297F00291CBF687E002803D00121697700202877D3
:202FB00000F0BAF9FFF702FCB4F92C00BDE8FE8F8C200020787840F0800078700021B170C9
:202FD00070472DE9F0410C46002C054616461F4601D500201DE008F00DF88046802221469A
:202FF0002846FEF7D9FA040003D094F82F00010602D400F042F80BE094F82F0010F00F0F2E
:2030100009D000F03AF894F82F0010F00F0FFAD1022000212FE0D4E9060146F00A06304035
:2030300039400022914208BF904210D000F025F8D4E9060130403940C5E91C01D4E906232E
:2030500022EA000023EA0101C4E9060111E06168DFF8B805814202D06168A9666060C5E968
:20307000186700F00AF84FF0FF3105F1400007F0C9FDD5E91C01BDE8F081404608F086B8C0
:20309000DCB500F01DF808BFDFF880352046FFF77BFE08E0DCB500F013F808BFDFF86C35AF
:2030B0002046FFF7DAFE0146204602B0BDE8D04000224FF0E04384E7D92000005B20002035
:2030D000DDE906670446CDE900671800704770B5FEF7CEFC0546DFF81415DFF800650120EB
:2030F000487504F19C0007F055FF00F029F804BF707E00280CD1DFF8F81491F8340038B1D7
:2031100000F052F80720FEF78AFA07F04BFF054600F016F80CD104F1780007F03BFF01209F
:20313000FEF78DFC707E012805D10121317702E0012084F8C2002846BDE8704008F02AB86C
:20315000B6F93A00B6F93810884270477AE442F0020277E40FF2D0411C2204F097BE00E096
:2031700000BF0022C8E470B5DFF87014CA6B90426FF07F0412D1487E80B107F013FF05461B
:20319000DFF88C0407F076F9064600F00DF806F0FF00012802D13602301670BD204670BDE2
:2031B0001F1F000000100440284607F0F3BF00002DE9F0410E461446832507F0F3FE032EA0
:2031D0008046DFF8187465D8DFE806F002071114B86A50B1B96A888D05E09F48808B4FF617
:2031F000FF71884201D0208055E0802553E0787E207050E024685021204605F091F900214E
:20321000DFF8EC23080152F82130235004F10C0E0C234B431344491C1E7E0EF80060261DD4
:20323000D3F814C046F800C001291B699C4404F1080343F800C0E5DDB86AA0B1BA6AD368C4
:203250000801491C235049B2BA6A92F82E3004F10C021354BA6A536A221D1350BA6A936A68
:2032700004F108021350786AA8B1042913DC0A01C368A35004F10C0790F82E30BB54271D1B
:20329000436ABB5004F10807836ABB50491C006849B2E9E7032536E19D23000080B58022FC
:2032B000FEF77AF900B1806802BD2DE9F8430446CA480D46417E807F01431E4608BF6FF0B2
:2032D000010027D00A2129806A60DFF88C814046FFF722FB0746781F03281AD2AF7007F0BA
:2032F00061FE8146284607F0C5F8054600F014F805F0FF05012D06D108EB870040F8086C0B
:2033100040F8144C05E001213846FFF727FB6FF001073846BDE8F283484607F03BBF2DE9D4
:20333000F8430446AD480E46417E807F0143904608BF6FF0010038D0474F3846FFF7ECFAB8
:203350000546681F03282FD207F02CFE2A02814602F4706216434FF6FC703040AD490843C8
:2033700007F088F800F0FF00012815D1F0040CD5A94901230A6805F10C0083409A430A605F
:20339000BD77F87F40F00400F87707EB850040F8144C40F8088C05E001212846FFF7DEFAB1
:2033B0006FF00105FFF7B8FF2846BDE8F28310B54FF6FC742140BDE81040984B0022194332
:2033D000FFF79ABB002009400BB70000751E000070B582480C46417E807F014301D101209E
:2033F00070BD1D48C17F4A0707D5837F9C4204D101F0FB01C1770021817707F0D3FD0546B9
:2034100001212046FFF7AAFA4FF6FC7000EA042040F0816040F0010007F02CF806467E484C
:20343000012201680C3402FA04F421EA04040460FFF7BAFE06F0FF06012E01D1812070BDCD
:20345000022070BDB11E00005B1C0000FD1B0000891E0000ED150000242000205A20002008
:203470002DE9F04107460C46154607F09BFD5B4EB17E8046707E0143F07E0143062C41D89F
:20349000DFE804F004070D10131F2D002868386036E001207874F8686030F86030E02868A7
:2034B00078822DE0286830742AE0286818B98020FEF7B9FA24E0012824D18020FEF7BFFA9E
:2034D0001EE0002904BF706A00280DD12968192007F074FD29681A2007F070FD10E0002998
:2034F00004BF706A002801D000250CE0296806F1440007F085FD296806F1940007F080FD40
:20351000832500E00325FFF7A5FC2846BDE8F0810C1004402DE9F84F0E46814630684FEA27
:20353000900A3F48824502D2307A022801D003202DE007F037FD2E4C8046606800278145CA
:2035500008BF012787F0010054F82050B9F1000F04F1320B04D009F19C0007F06EFB58B972
:20357000BDB105F19C0007F068FB28B902212846FEF7EEF805000DD19BF80200C4F82890A8
:2035900040F002008BF80200FFF764FC0020BDE8F28F02250C204743E01931680161317A4C
:2035B000017620480168BAFBF1F1012998BF012109F19C0007F0EAFC09F19C0007F0E8FC95
:2035D000FFF748FC012D06D19BF80020B4F93010E06AFFF7BCFD8320D9E70000081E00205A
:2035F0000100020401000104D421084044200020EC1F0020731E0000FD1D0000131E0000E6
:203610000430044000093D00FDEFFF9F191E000001000304010003060810044001000406A2
:2036300041420F008C200020FFFFFFFFC4090000000000000000000001003A010000000017
:20365000000000002DE9F843089C582B804617460CBFBDA5C1A5002908BFB8F1000F05D1AE
:203670002068411E2160302707702AE04FEAE7793E460246083E13D0083E0DD0002908BF59
:20369000B2F1FF3F04D94B463A4602F0AFFE0BE0B2FBF7F0002107E008071209090902E007
:2036B0004807D208C9081043226800FB1783561E0029EB5C26608046137008BFB8F1000F5C
:2036D000D6D1206807F076FA401EBDE8F8837CB51446002806460D460094B8BF4042642360
:2036F0000A22C117FFF7AEFF702D0BD0502D09D00A2E09DA16F10A0F04DD2068411E2160C1
:2037100030230370002E01D42B2100E02D212068421E226001702068411E216005707CBD65
:20373000F8B517460D46044607F044FA024629460020002903DD8A42A4BF0819401E27B137
:203750001D686E1E1E602E272F708A4208DA8F1A302511461A68561E1E607F1E1570F9D173
:2037700000290CDD84420FD8071B7F1C196810F801294C1E1C607F1E0A70F7D1F8BD186810
:20379000411E196030270770F8BD2DE9F04F04461546A868ADF16C0D0028199302D003D51F
:2037B000062000E00120A860884630210FF2043B8DF800109BE80C00471C2046414604F003
:2037D00065FDA14638BF88F00048002612E03020087059E09AE80C0003F073FD761E88466D
:2037F000814611E09AE80C00484603F017FA761C88468146C9A20CCA414604F08AFD0FF276
:20381000143AEFD300201A909BE80C00484604F03DFD09D01A9CC3A20CCA484604F036FDF4
:2038300038BF0124002CD5D1484605F02DFD83460DF1010105F034FB841900EB0D01874291
:2038500001F1010619DD3F1A584606F089FC0B4602464146484602F0A1FF9AE80C0003F036
:2038700030FD8846814605F00FFD83460BF130007F1E06F8010BE7D101E06F447E1C16F8E5
:20389000010D35280ADB314611F8010D401CC2B23A2A08709BDA6F468F4204D01A980DF10F
:2038B0000107307003E01A98641C06F8010C14F1030F09DBA868A04215DA022C04DB1A9895
:2038D000641E24181A9406E0002C05DC1A98C4F10104001B1A900124287B199A801EC1B2BC
:2038F0001A98FFF7F4FE384607F064F90026401E844219DC021B521C002803D4395C302995
:2039100001D004E0302116B92B681B0908D3DDF864C0DCF800305E1ECCF8006001261970E3
:20393000521EA0F10100E7D12868002200F00800304318BF0122199B21463846FFF7F0FE29
:203950001BB0BDE8F08FC0463031323334353637383941424344454600C046C03031323334
:2039700034353637383961626364656600C02DE9FE4F0D99441C9946924601900FF2341BDA
:2039900000940C9F029130210170194610469BE80C0004F07BFC38BF89F00049002512E004
:2039B0003020087054E098E80C0003F08AFC6D1E8946824610E098E80C00504603F02EF9A8
:2039D0006D1C8946824655A20CCA494604F0A1FC0FF24018EFD37F1C9BE80C00504604F0FB
:2039F00055FC0AD04FA20CCA504604F04FFC4FF0000638BF0126002ED5D1504605F044FCEE
:203A10000646214605F04CFA041941190298EF19002F016017DD304606F0A2FB0B46024669
:203A30004946504602F0BAFE98E80C0003F049FC8946824605F028FC064606F130007F1E23
:203A500004F8010BE7D114F8010D352810DB214611F8010D401CC2B23A2A0870A0DA0198F7
:203A7000884205D10299019A08680092401C0860002100982170BDE8FE8FF8B516460D46C2
:203A9000044607F097F8324629465118491E521E0FD4521C002903D48842C8BF665C00DCDF
:203AB00030261D686F1E521E1F60A1F101012E70F0D1F8BD0000000000000000F0B51546F7
:203AD000AF681C460246ADF5FE7D002FADF1100D44BF0627AF60266802A800970B4601901E
:203AF00003A8FFF744FFAA68029923460746FFF7C4FF20680122B04203D12868000938BFB5
:203B10000022029938462346FFF70AFE7FB004B0F0BDC04600000000000024400000C0FF3A
:203B3000FFFFDF41000000000000F03F2DE9F0471646B4689A4688460746ADF1700D002C21
:203B500044BF0624B4600FF2E42999E80C0004F0E0FB4FF000050DD90FF2D82999E80C00F1
:203B7000384604F093FB05D9B4A20CCA04F08EFB12D11FE099E880010EE099E80C003846D1
:203B900003F04CF86D1C07460FE099E80C0003F098FB6D1E88460746AAA20CCA4146384639
:203BB00004F074FB0FF2A429EFD399E80C0004F0B0FBE2D9009402A80B463A46019003A8D0
:203BD000FFF7D5FE04460298022809D1401E0290204606F0EFFF6D1C0021201800F8011CF3
:203BF000317B28465246FFF772FDB268029920465346FFF742FF204606F0DCFF02990122BE
:203C1000884203D13068000938BF002220465346FFF786FD1CB0BDE8F0872DE9F04F07463A
:203C300016460020ADF17C0D1B9380A4009094E80C00384604F06DFB88460FF200290CD930
:203C50007CA494E80C00384604F020FB05D999E80C0004F01BFB02D109E094E8800141466A
:203C700038466A4605F03EF80098401E0090307BB5680024A0F14101B5F1FF3F1D9108BF3D
:203C90000124A24641280CBF744875481E9030208DF8080099E80C004146384604F0F6FA59
:203CB00038BF88F0004899E80C00414604F0EEFA0CD0384601AA05F015F8019A41463846A6
:203CD000C2F1010203F018FE88460746384605F0DBFA83460DF1090105F0E2F8044658462A
:203CF00006F03EFA0B4602464146384602F056FD0FF2601B04EB0D021C940746BAF1000F72
:203D100002F1090451D16D1C15D09BE80C0003F0D8FA8846814605F0B7FA1E99095C04F85C
:203D3000011B06F01DFA0B4602464146484602F035FD6D1EE9D11D9F641E002F14BF484B60
:203D5000464B2178184606F0F7FEC01A082831DB254600271D986D1E002814BF404B3F4BE8
:203D70002978184606F0E8FEC01A401C1028B4BF195C3021102829701CDB2F70EAE79BE8F6
:203D90000C00384603F09DFA0D46074605F07CFA1E99095C04F8011B06F0E2F90B46024656
:203DB0002946384602F0FAFC074699E80C0004F06DFAE4D10025307B2570412814BF702102
:203DD00050211B9A0098FFF782FCB068B0F1FF3F05D10DF1090006F0EDFE401EB0601C99C9
:203DF0001B9B0DF1090402462046FFF746FE3168B0682A4601F00801084318BF01221C99F5
:203E10001B9B2046FFF78CFC307B412814BF782158211B980268531E0360117001683027CD
:203E30004A1E02601FB00F70BDE8F08F000000000000F07F000000000000F0FF00000000D8
:203E500000000000000000000000F03F0000000000002440000000000000304058390000BE
:203E70006C3900002DE9F04F05462B6816460C46ADF5FE7D1846ADF1600D06F09BFE4FF058
:203E9000000A01468B96184693945B1883428C9340F24A84CDF844A2CDF824A251469291D4
:203EB0008A919691B84A959294924FF0FF360396899901910F468DF8107002970778252FDA
:203ED00008BF0A1C10D0002F00F02E842968491C296000788B9904F05FFA286807780AF1C2
:203EF000010A252FEFD1019A2868939C401C286011E042F010020AE042F0010207E042F0E8
:203F1000020204E042F0080201E042F0040201922868401C286028680178B1F12000F4D0BE
:203F3000C01EEFD00838EAD0801EE5D0C01EE0D02A291DD0969986A80A2204F0F5FA2868BD
:203F5000017830290BDB86AA3A2908DA0146401C2860097802F8011B01783029F4DA9DF82D
:203F700018722E68B7B186A805F0B2F8029011E0E41C24F00304241D54F8040C002803D5A1
:203F900042F0010201924042029020462E689390761C2E6030782E2831D12868401C286082
:203FB00000782A281FD0969986A80A2204F0BCFA2868017830290BDB86AA3A2908DA014601
:203FD000401C2860097802F8011B01783029F4DA9DF818722E68002F08BF8A980DD086A8DE
:203FF00005F076F809E02E68E41C24F00304241D761C939454F8040C2E6003903078019FF5
:204010004C381FD01C3811D0001F21D12E68761C2E6030786C2803D047F04007019717E005
:204030002E6847F48077761C2E60F7E72E68761C2E603078682818BF47F02007EED147F48D
:20405000007701E047F0800701972E68761C2E602868401C286030786E288DF8100000F0B5
:204070002E83732800F0E2820DF21520029E059020214FF4FF7206A804F056FA6E44183640
:2040900005988D968A9901700B468E930DF5057C8F938B4690939DF81070CDF814C0384685
:2040B000642814DC642821D0253800F0B4821C3800F00D81001F022840F20981133815D06D
:2040D000093800F00481801E00F0EC8172E16538022840F2FC80001F08D0801F012805D9BA
:2040F000801F18BFB0F1030040F064810399002904D4019820F01000019002E00120039004
:204110000146B7F1580007D0173807D0401E03D0083818BF0A2202D1102200E00822702F29
:2041300077D00198D946D84600F4EC60203852D0203842D0C03829D0B0F580700DD0B7F123
:20415000580066D00C385BD0401F59D0801F60D0801F5ED0C01E5CD065E0B7F158000AD005
:204170000C384DD0401F4BD0801F04D0801F18BFB0F1030057D1E41C24F00304241D14F837
:20419000048C4FF000094DE0FFFF0F00B7F158000AD00C3808D0401F06D0801F04D0801FC0
:2041B00018BFB0F103003ED1E41D24F007040834A4F1080090E8000334E0B7F1580028D0E5
:2041D0000C381DD0401F1BD0801F22D0801F20D0C01E28D11DE0B7F158000AD00C380FD063
:2041F000401F0DD0801F04D0801F18BFB0F1030019D1E41C24F00304241D34F8043C0EE046
:20421000E41C24F00304241D54F8043C4FEAE37907E0E41C24F00304241D54F8043C4FF003
:20423000000998469394CC1743464846194350EA040608BF002903D101990C09C0F04881DA
:20425000642F18BF692F08D1002806DA01265B424FF000018F9661EB000005A90091014670
:2042700018463B46FFF7EEF90399401C814227DA9DF81070782F03D0582F18BF702F11D148
:20429000019908090FD3702F08BF7827059807700598401E05903021017005989DF8107064
:2042B000401E059001996F2F40F012810809C0F00F8105984278302A00F00A813021ECE066
:2042D000059930220A700599491E0591CCE73846A0F16101192998BF20385E46B84208BF4F
:2042F0000126E41D24F0070408349394083C94E8030047F6F07347F6F07E03EA11439E45D2
:2043100010D1949C0A4600231200134300221C4040EA02024FF0FF3303EA020208BF002AA2
:2043300040F0A1805FEA0B0440F09D8073460FF2C42C03EA11439E450FD1959C0A46002325
:204350001200134300221C4040EA02024FF0FF3303EA020208BF002A33D05FEA0B0430D18A
:204370009CE80C0003F092FF3CBF81F000414FF0010BB7F141021FD0121F15D0521E0ED0E3
:20439000521E07D01A3A17D0121F0DD0521E06D0521E0FD101AA05ABFFF7F7F908E001AA13
:2043B00005ABFFF78BFB03E001AA05ABFFF7BEFB9DF8107001998BE001AA05ABFFF72DFC40
:2043D00029E09CE80C0003F061FF26D3002E14BF4621662105988DF81412002EA0F10100F1
:2043F000059014BF4E216E2101700599002EA0F10100A1F10101059114BF49216921017016
:204410000599491E05912B2700F8017C05984FF0030B401E0590019958E0002E14BF462113
:20443000662105988DF81412002EA0F10100059014BF4E216E2101700599002EA0F10100A8
:20445000A1F10101059114BF4921692101700599491E05912D2700F8017C0199DDF814C043
:204470004FF0040B2FE0002E14BF4E216E2160468DF81412401E002E059014BF41216121A7
:2044900001700599002EA0F10100A1F10101059114BF4E216E214FF0020B01700598401E8A
:2044B000059085E7E41C24F003045E46241D14F8047C939407B901268DF814720199909686
:2044D00021F0020101916046401E05909DF81070059A752F02F101002BD06F2F29D0782F08
:2044F00027D0582F25D0702F23D05FEA0B0703D07F1E1ED101238F9301F002038F9F8E9362
:204510001FB98B0808D32B2100E02D211170059A0199401E521E05928E9E374309D1CA085A
:2045300007D3059920220A70059A0199401E521E059249080ED20599029AADEB010303F29D
:2045500015239A4206DB8D9C06AA891A6418A4F5FE7400E006ACA446401E4FF4FF7110F8BE
:20457000017F0CF8017B1FB1491EF8D1DDF858C2909ACDF814C022B18A9960460170401C10
:20459000059005988D9981420AD38846A8EB00022021401E521C03F0C7FF8A9888F8000048
:2045B000019840092AD306A8A0422ED006A8221A302106A803F0B8FF9DF81000782810D0C6
:2045D00058280ED070280CD08E9F8F9E374302D10198C00819D320788DF8180030272770E2
:2045F00013E00198000910D360788DF81900302767700AE0000000000000000006A8241AB9
:204610002021224606A803F08FFF06A806F0D2FA909A121804E047A00188012206AF398009
:204630008B9906A803F0C4FE824478E0039BE41C24F00304241D54F8048C9394B8F1000F10
:2046500038D0029E002B06D4404606F0B3FA984288BF181C02D8404606F0ACFA0446B442E3
:20467000A8BF061CB244A6420ADD780808D2371B002F05DD8B99202003F08EFE7F1EF9D1D5
:20469000002C07DD274618F8010B8B9903F084FE7F1EF8D10198A64241DD40083FD3361B28
:2046B000002E3CDD37468B99202003F075FE7F1EF9D134E096988B9903F06EFE2FE007F426
:2046D000EC67B7F1200021D0E03814D0B0F5807008D0E41C24F00304241D54F8040CC0F8E5
:2046F00000A01BE0E41C24F00304241D54F8040C80F800A012E0E41C24F00304241D54F8A5
:20471000040C4FEAEA7B80E8000C07E0E41C24F00304241D54F8040CA0F800A093942868D9
:204730008C9981423FF6C1AB7FB0504618B0BDE8F08FC046250070472DE9FE4FE5498046F6
:204750000122A1F130000260DF480768002FFCD0DE4ADF4EC027E048E04B17603268920837
:2047700008D2324652F8042C03F14104120C42F0F00222704FF0000A8346C1F800A0DFF80E
:2047900064C3DBF80810D64D0191880E43D2480E41D3802018744FF6D802A3F8512018704E
:2047B0002868C0F30464162CA8BF203C1F460F3F387800F01F001628A8BF2038844223D011
:2047D000624602F1980EDA4ACEF800A0261A022E05DC16F1020FB8BF6FF0010600E00226B0
:2047F0003018166800F01F06844246F4F856A7F866604FF001061660E8D11068374617603A
:204810001068CEF80060106828460068C0F30420162808DB06E0A5F1D0000068C0F30460D9
:20483000162800DB203800EB2170401C162805DA10F10A0FB8BF6FF0090000E01520DE4FC7
:2048500000F01F0040F4F850A3F85900386880083ABFEA48C0F800A041F04061019E624605
:20487000A5F13804C80E8F0E80F0010000F00100106087F0010000F0010090602068C0F37D
:204890008367C0F38F21B00C23D2304640F3072000280BD542425046490805D17F0806BFA5
:2048B0000127391C4FF6FF71521EF5D1002810DD4FF6FF72490041F001018A4207D27F0015
:2048D00047F001070F2F92BF01210F27111C401EF0D141EA0741182005F088F92068D24E8D
:2048F0002768C94CA6F10409C0F3870107F0030041EA0021D9F8040040F2FF3253468FB2CD
:204910002C21466800972746A7F14000B0470C3D2868C0F30D011C2005F068F9B84955F83F
:20493000080C014000F07C400143142005F05EF955F80C1C01F47C000904090C0143102026
:2049500005F054F9624955F8042C0968C2F30350C2F30345490813D2DBF800100B0510EB43
:20497000237003D41028A8BF0F2000E05046090415EB217503D4102DA8BF0F2500E05546AC
:2049900045EA001502F47F4002F0FF01B8F1220F40EA054041EA000124BF02F080421143BC
:2049B0000C2005F023F9974DB8F1220F32BF01202868C0F30070B8F1220F4FEA400040F0A4
:2049D000200084F8090126BF2868C0F3407001208E4EB8F1200F40F0100084F8090138BFB7
:2049F000514606D33168C80C00F44070C1F384510143282005F0FAF8B8F1200F26BF3068D5
:204A1000C0F301505046B8F1220F4FEA400040F0600084F80C0126BF2868C0F3C0605046A2
:204A3000B8F1220F4FEAC00040F0800084F8010126BF2868C0F345505046B8F1200F4FEA01
:204A5000800040F47C40A4F89C0138BF70490AD3306801038A15920501F47C1100F00F00BD
:204A7000114341EA0031082005F0C0F84FF48000A5F1D0012060674A886D40F21E236FF37C
:204A90001F40834216D90868030E13F00F0F03F00F01C0F3034018BF491E072805D00628E8
:204AB0000EBF0720801C00F00F0041EA0011A2F108000170DDF804C0CCF381477F1E13D06F
:204AD0007F1E3BD036E0C0469402224300600C40B03F005040100940AC3F00501562084089
:204AF000881300500000204328460068810C21D24FF480412160D2F80210430AC0F3033767
:204B100003F0800321F08F010B4347EA0301C2F80210D2F80130060A66F30303C2F80130CA
:204B3000116800F0E70721F0E70147EA010004E02C2009404FF00040224610603B48006828
:204B5000C0F3C0070FB94020A0624FF40070206428684027C0F3C14040F0300084F8C8001B
:204B7000CCF3815050B3401E03D0401E1FD002211EE0012005F090FB06460420314603F078
:204B9000C7FF042005F088FB8642FAD12248066826F07F4005F03EFAD9F8140003680721BE
:204BB0004FF06022300E98474FF4806020600321042003F0ADFF08E0000009400420012106
:204BD00003F0A6FF154805F025FA203D2868144947F6180600F03F0084F8CB0F144B0E80A5
:204BF000D9F800201868D1680220884711480D4D076001212960BDE8FE8FC04694042A4308
:204C1000FCFCFC008C13005040A00C409813005000803F400A600840A83F0050BD37860018
:204C300070B00C4094046042A4010010B03F00502C20094000600C40F8B5EF4C0546A0694D
:204C50001921002204F090FEA0691621002204F08BFEA0691521002204F086FEA0690F2175
:204C7000002204F081FEA0690C21002204F07CFEA0691D21002204F077FEA0691C2100228F
:204C900004F072FEDD4FA06918213A4604F06CFEA0691721002204F067FEA0691A213A46D4
:204CB00004F062FE4FF4FA6005F0A2FFA0691A21002204F059FEC82005F09AFF6D1E0E2677
:204CD00015F8013FA069203B00F0C3810F3B0B2B00F2FC81DFE813F094016C0148012401B6
:204CF0000101DE00BB009800750052002F000C0019213A4604F038FEA0691621002204F035
:204D100033FEA0691521002204F02EFEA0690F213A4604F029FEA0690C213A4604F024FE31
:204D3000A0691D213A4604F01FFEA0691C21002204F01AFE16E119213A4604F015FEA06956
:204D50001621002204F010FEA0691521002204F00BFEA0690F213A4604F006FEA0690C21A3
:204D70003A4604F001FEA0691D213A4604F0FCFDA0691C21002204F0F7FD17E119213A46FA
:204D900004F0F2FDA0691621002204F0EDFDA0691521002204F0E8FDA0690F213A4604F0F9
:204DB000E3FDA0690C213A4604F0DEFDA0691D213A4604F0D9FDA0691C21002204F0D4FDC0
:204DD00069E119213A4604F0CFFDA0691621002204F0CAFDA0691521002204F0C5FDA069C2
:204DF0000F213A4604F0C0FDA0690C213A4604F0BBFDA0691D21002204F0B6FDA0691C218A
:204E10003A4604F0B1FD1DE119213A4604F0ACFDA0691621002204F0A7FDA06915210022B0
:204E300004F0A2FDA0690F213A4604F09DFDA0690C213A4604F098FDA0691D21002204F0EC
:204E500093FDA0691C213A4604F08EFD8AE019213A4604F089FDA0691621002204F084FDF8
:204E7000A0691521002204F07FFDA0690F213A4604F07AFDA0690C213A4604F075FDA06908
:204E90001D21002204F070FDA0691C213A4604F06BFD8BE019213A4604F066FDA069162163
:204EB000002204F061FDA0691521002204F05CFDA0690F213A4604F057FDA0690C213A4609
:204ED00004F052FDA0691D21002204F04DFDA0691C213A4604F048FDDDE019213A4604F06E
:204EF00043FDA0691621002204F03EFDA0691521002204F039FDA0690F213A4604F034FD68
:204F1000A0690C213A4604F02FFDA0691D21002204F02AFDA0691C21002204F025FD91E038
:204F300019213A4604F020FDA0691621002204F01BFDA0691521002204F016FDA0690F2187
:204F50003A4604F011FDA0690C213A4604F00CFDA0691D21002204F007FDA0691C21002243
:204F700004F002FD3A4697E019213A4604F0FCFCA0691621002204F0F7FCA06915210022E7
:204F900004F0F2FCA0690F213A4604F0EDFCA0690C213A4604F0E8FCA0691D21002204F09E
:204FB000E3FCA0691C21002204F0DEFC00224AE019213A4604F0D8FCA0691621002204F0A8
:204FD000D3FCA0691521002204F0CEFCA0690F213A4604F0C9FCA0690C213A4604F0C4FCF7
:204FF000A0691D21002204F0BFFCA0691C21002204F0BAFC4FE0C046080200200000408058
:2050100019213A4604F0B0FCA0691621002204F0ABFCA0691521002204F0A6FCA0690F21F9
:205030003A4604F0A1FCA0690C21002204F09CFCA0691D213A4604F097FCA0691C213A4657
:2050500004F092FC3A46A069182104F08DFC3A4627E019213A4604F087FCA0691621002265
:2050700004F082FCA0691521002204F07DFCA0690F213A4604F078FCA0690C21002204F073
:2050900073FCA0691D21002204F06EFCA0691C21002204F069FC0022A069182104F064FC51
:2050B0000022A069172104F05FFCA0691A213A4604F05AFC4FF4FA6005F09AFDA0691A21B3
:2050D000002204F051FCC82005F092FD761E7FF4F7ADF8BD2DE9F04F074600251C4616460C
:2050F00088464FF007092846ADF12C0DAB460A9008E03846694605F08EFD684605F05AFD24
:20511000761CC719A84540F27081A8EB0500761E16F8011F41B1252906D0401E05F1010533
:2051300007F8011BF4D160E1A84540F25E81002904BF5846387000F0588116F8010F61289E
:2051500029DC612800F0D480532814DC532800F02A81253800F03E811C3800F03681401E87
:2051700000F03081801F00F02281401E36D0001F00F01B8132E1553800F00581801E00F099
:20519000EA80401E00F0C880401E00F0BF80401E00F0BA8022E16D280FF25C2A0DDC6D284D
:2051B00050D0623800F09980401E57D0401E53D0401E4ED0401F48D010E1703808D0C01FD3
:2051D0003CD0401E1BD0401E16D0401E11D005E1A0680C28B4BF86A086A0EEE0A06830B14F
:2051F0000C2804D00C2103F0C3FC0846E0E00C20DEE08548001DE0E060696421F3E7206965
:205210007F4951F82010684605F005FD5146684605F03EFBE0682C2301215A4603F0E4FEF7
:205230000146684605F034FB6846514605F030FB606901215A4600F26C7084E0A0690121F8
:205250000A46B7E02069022101E0E0690321401CAFE0E06802215DE0E068A9E0A06969493E
:2052700051F820100322684604F090FD8DF803B06846514605F00CFB2169624800EB810038
:20529000C169032201A804F081FDE0688DF807B05A462023032103F0A7FE0146684605F087
:2052B000F7FAA0683A230221012203F09DFE0146684605F0EDFA6068022101223A2303F085
:2052D00093FE0146684605F0E3FA206820230221012203F089FE8246A6E72069484951F823
:2052F00020100322684604F051FD8DF803B075E0A069444951F820100322684604F046FDB3
:2053100058468DF8030069E03F4856E06069012100F26C705A464DE0A068022101223A2320
:2053300003F062FE0146684605F075FC60683A230221012203F058FE0146684605F0A8FA6F
:205350002068022101225B4603F04EFE0146684605F09EFA42E0E369A0694946CC4693FB67
:20537000F1F2801D90FBF9F102FB0CF201FB09F19A1A411A58469142D8BF0120614693FBCA
:20539000F1F1401814E0E069A26990FBF9F101FB09F1431A59469A42D8BF01214A4690FB64
:2053B000F2F0091821E7206802E0606800E0A068022101225B4603F017FE0146684605F0DF
:2053D0002AFC0BE020690E4901E0A0690D4951F82000F2E709A0008869460880684605F03F
:2053F000E9FB4519A845BFF484AE0BB0BDE8F08F414D00C0504D00C02000C0462500C046AE
:20541000A8B400008CB400004C130020BA482DE9F84F0025B94CB749056094F8E2000028DD
:2054300000F06381012800F02F81B54E02283CD0032840F05A8151F8250CD4F8B810002919
:20545000A0F5C060C4F8D400B8BF49420028B8BF4042814226DA4FF08057D7F8A4014568DA
:20547000B4F8BC0030214FF47F42082300903046A847D7F8A4014568B4F8C00004214FF44A
:20549000F802122300903046A847D7F8A401B4F8D070456820214FF440620A23304600976B
:2054B000A847012584F8D8501AE151F8258C05F0B1FC2F4600B901273946924F386800280E
:2054D000FCD0B146012609F10409D9F82CA03E6009B105F0A5FCCAF30720C4F8BC0005F0EF
:2054F00099FCAA4600B9B2463B68002BFCD0D9F800B0BAF1000F3E6001D005F091FCCBF3E2
:205510008440C4F8C00005F085FCAA4600B9B2463B68002BFCD0D9F81C90BAF1000F3E60B5
:2055300001D005F07DFCC9F38120C4F8D000B8F5C061C4F8B81000F09C8094F8D80068B950
:20555000C4F8D410D4F8C000C4F8C800D4F8BC70C4F8C470D4F8D030C4F8CC30D4F8D4106F
:20557000D4F8BC30002954BF02206FF0010004F1C802176801EB41014018411000EB9171A3
:2055900007EBA1001060D4F8C810C4F8C43000291CDD1E293CDDD4F8CC0030B93429B4BFD1
:2055B00015391E21C4F8C81025E02A29BABFD4F8C8000B381E20C4F8C800D4F8C4003F2859
:2055D000B4BF401C3F20C4F8C4001FE0D4F8CC00032812D011F10B0FC6BFD4F8C8000B30F9
:2055F000301CC4F8C800D4F8C4000028C4BF401E051CC4F8C450032508E011F1150FC6BF86
:20561000D4F8C8001530301CC4F8C800C4F8CC504FF08057D7F8A401B4F8C43030214FF43B
:205630007F424568364800930823A847D7F8A40104214FF400321123456831480096A847D4
:20565000B4F8C860D7F8A40104214FF4F802122345682B480096A847D7F8A40120214FF4BE
:2056700040620A23B4F8CC60456825480096A84701E084F8D85040F2FF50404502D8801CD3
:2056900040452DD208202EE051F8251C1E4F4BF2F5204843060A3868C0F3814001280AD144
:2056B00004F0D4FE04F036F805F0C0FB3111C010484306EBE03694F8E50030B91348006881
:2056D00020F07F408019460801E084F8E5501048310C0660012741600E4D8760287808B90B
:2056F0000B2000E0052084F8E40001F033F9BDE8F88FC0462D400C402C500C409C0E002070
:2057100000A00C4000800C40B43F0050102009403C600C4089B60000F8B5A0F2013517460C
:205730000E46022D40F214818A4A8B498B4B2D1F0F2D04D9143D4AD0AD1E1CD011E0DFE852
:2057500015F0C300BC00F400E400B300AB000701A2009A00100010009200880079006F0019
:205770006300282880F2F480022E40F0F180398804F0A0F9F8BD012E40F0EA8015462879E7
:20579000012800F0E58051793878507181B9002800F0DE809078012800F0A980042800F02A
:2057B000A680062800F0A380052800F0A080F8BD3878002840F0CC809078032800F0A280E7
:2057D000072800F09F80052800F09C80F8BD012E40F0BE803878012840F0BA80154605F15C
:2057F000F00005F073FA002840F0B2802C46002004F13E0102F056FE002840F0A98004F13B
:20581000CC0005F0FFFBF8BD022E40F0A18038880A28C0F29D80B0F5486F00F3998015E069
:20583000022E40F095803888B0F5FA7F80F290800880F8BD022E40F08B8038880628C0F23B
:205850008780B0F5486F00F383801946891C0D4638E0022E7CD13888062879DBB0F5486F55
:2058700076DC1946F3E7012E72D1387806286FDA891F0D460EE0012E6AD13878042867DA84
:2058900015460B3506E0012E62D1387808285FDA15460A352870F8BD012E59D138780428E0
:2058B00056DA1546093506E0012E51D1387804284EDC154608352946DBE7022E48D1388800
:2058D000154612352946B3E7012E41D11546687901283DD011793878107161B9002837D056
:2058F0009078012803D0042818BF052830D1012005F0AEF8F8BD387850BB9078022818BF2E
:20591000052825D105F0A2F9F8BD154605F1870400211F22204602F007FE39463246204617
:2059300002F0B4FA0020EE710EE0154605F1680400211F22204602F0F7FD39463246204682
:2059500002F0A4FA0120AE713146224603F0FCFAF8BDC046AC060020F0060020EC060020EA
:205970002DE9F047DFF80CA20746AAF13500DFF8F8810068800880F0E78004F067FD8149EF
:2059900008310B6800261C17641C990D0AD2C0F13E0110F10A0F4FEAE101D8BF08218C423D
:2059B000B8BF0C1CDFF8C4C1990E0FD2590E0DD36246143A1168C1F304211629A8BF2039C6
:2059D0001268C2F30462162A0EDB0CE0634AD2F87C11C1F304611629A8BF20391268C2F3C2
:2059F0000442162A00DB203A61189146162905DA11F10A0FB8BF6FF0090100E01521584CB9
:205A1000584D01F01F0242F4F85222802A6812F0030F18BF0126D20828BF46F002060FB13A
:205A300046F00406424692F90740041B052C04DA9479B44208BF918866D00F28A0F10F0896
:205A500027DB08EB0014A4F1F0084FEA282EBEF1070F88BF4FF0070E7546062D88BF062551
:205A70005CF82570042404EB850465462C59E41B04F0FF05F70824BFC4F307273D44B7085F
:205A900024BFC4F307473D44770828BF05EB146501E00025AE465CF82EC0F7080CF0FF0484
:205AB00024BFCCF307273C44B70824BFCCF307473C44770828BF04EB1C64ADB2A9EB01018D
:205AD000A8EB0E277D43002905F1800504EB1524D8BF012103F0FF0334254D43A9B25943D4
:205AF0004FF6FF73B1FBF4F18B4238BF191C802889B2918005DA10F1800FB8BF6FF07F009D
:205B100000E07F20D0719671194800681F2910604FF0000008D340F2FF128A4206D24908DB
:205B3000401C8A42FBD301E01F219180124F0F39090940EAC10047EA0001CAF8FB1F002653
:205B5000CAF8FF6FBDE8F0870C490D4F424608200F60921D1070BDE8F087C0463C1100502B
:205B70006E62084024220840842000209C130050082009403500094000E7A4803010094029
:205B9000FDFDA400AC3F005001282DE9FE4F40F0EE80DFF810B2DBF8DC00012840F0E480ED
:205BB0000220CBF8DC0004F073FD012003F018FC5FEA000805D00120CBF8DC0004F078FD39
:205BD000D7E005F017FA6C49029000200860012004F062FB012818BF002003D1002002F0B1
:205BF00035FF0120654900900020654F08603868112005F02DF900280CBF0024012410206E
:205C100005F026F908B144F002040F2005F020F908B144F004040B2005F01AF930B162487D
:205C300014300068574E016B308888470A2005F00FF9002600B101264FF0805A0AF5DC7582
:205C5000301C04D02868504E016B308888474F48012606602868816944F0200088474C489E
:205C7000066005F0EFF800F001010191400814D2484805F065F88146B9F1040FF8D0B9F148
:205C9000010F05D1DAF8D80142684248032190474149086820F0030008600020FFF760FE4B
:205CB0002B683868986B8047019801280DD0B9F1010F05D1DAF8D801426836483146904787
:205CD0003549086840F0030008602C48066028684169204688470B2005F0BAF820B12868AF
:205CF000284BC16A188888470A2005F0B1F820B12868254BC16A188888472448032206605D
:205D10002349CBF8DC2000230B602868416B204688470128F9D13868042003F061FB0446F9
:205D300015481E490660386808688009FCD30098012802D1304602F089FE05F071F80820B8
:205D500003F04EFB07460298CBF8DC6005F01EFA1348008802F078FD04F0AAFC57EA0400DB
:205D700018BF4FF0FF3804E06FF0040801E06FF001084046BDE8FE8F0C400940000222437A
:205D90002C20094006B5000002B500002820086080010443004003402422084014100940F6
:205DB00084B600009C0E0020A40100102DE9F043002B08BF002A10D10029BCBF00204FF0D1
:205DD000004106DB50EA01071CBF6FF000006FF0004100F0BEFDBDE8F0835FEA530898EA8C
:205DF000610803D50026404266EB01015FF0000913F0004E03D00026524266EB03031C4668
:205E10001546002C08BF8D429CBF2C1C0025070C47EA01470E0CB44208BFBD429EBF2404A6
:205E300044EA15442D04070A47EA01670E0AB44208BFBD429EBF240244EA15642D02470874
:205E500047EAC1774E08B44208BFBD4200F29280870847EA81778E08B44208BFBD427BD856
:205E7000C70847EA4177CE08B44208BFBD4265D8070947EA01770E09B44208BFBD424FD8D8
:205E9000470947EAC1674E09B44208BFBD4239D8870947EA81678E09B44208BFBD4223D82E
:205EB000C70947EA4167CE09B44208BFBD420DD8E60146EA5566EF01B14208BFB84201D367
:205ED000C01BB14159EB09094EEB0E0EA60146EA9566AF01B14208BFB84201D3C01BB14163
:205EF00059EB09094EEB0E0E660146EAD5666F01B14208BFB84201D3C01BB14159EB0909FA
:205F10004EEB0E0E260146EA15762F01B14208BFB84201D3C01BB14159EB09094EEB0E0E0A
:205F3000E60046EA5576EF00B14208BFB84201D3C01BB14159EB09094EEB0E0EA60046EAAB
:205F50009576AF00B14208BFB84201D3C01BB14159EB09094EEB0E0E660046EAD5766F0027
:205F7000B14208BFB84201D3C01BB14159EB09094EEB0E0EA14208BFA84201D3401BA1416C
:205F900059EB09094EEB0E0EA34208BFAA423EBF2D0A45EA0465240A8AD373464A465FEAC5
:205FB000080803D50026404266EB01015FEA480803D50026524266EB03031E4617460B465A
:205FD000024631463846BDE8F08370472DE9F047814C7AA60521ADF1300D04F5E87532469C
:205FF00006A82B4602F0FCF906A803F071F82F21C4F89800284604F075FF03210546324620
:206010002B460AA802F0ECF90AA803F061F82F21C4F89C00284604F065FF07460321324621
:206030003B460AA802F0DCF90AA803F051F8C4F8A0002021384604F055FF0546032132461E
:206050000AA82B4602F0CCF90AA803F041F8C4F8A4003A21284604F045FF03213246054630
:206070000AA82B4602F0BCF90AA803F031F8C4F8A8002021284604F035FF07460321324654
:206090000AA83B4602F0ACF90AA803F021F804F140053A212860384604F024FF0346032149
:2060B00032460AA802F09CF90AA803F011F8D4F898A0D4F8A490D4F8A880D4F89C60D4F8E5
:2060D000A07060640021242204F5967002F02CFA761EC4F83C61C4F83081C4F83871C4F8E3
:2060F0003491AAF26C70676304F59676C4F840014FF00008C6F80080384604F0ADFB304672
:20611000FAF71AFE04F04EFA354834490068B2460127B1FBF0F903F05FFC0090684600F097
:20613000E1FC4CC804F596714CC14CC84CC10DC881E80D0002A80F2121A25346FEF7CAFFF1
:2061500002A8FEF779FDD4F83801616B814202D0606304F081FB6FB303F03EFC019001A8F8
:2061700000F0C0FC4CC804F596714CC14CC84CC10DC881E80D0008A8062115A25346FEF7BA
:20619000A9FF08A802F0A4FF062112A25346064608A8FEF79FFF08A802F09AFF2968B14240
:2061B00008D16968814205D1A0690E4A1B2103F0DBFB4746484604F0E5FFACE7257300C048
:2061D00025642F256D2F25792025483A254D00C0254800C0254D00C00802002000879303F9
:2061F00020B70000000040807D482DE9F0410D4604F094FE284604F0BFFC002840F0ED8031
:20621000794CE069012803D101F070FF0020E061A069DFF8D08129460D392DD0491E18BF81
:20623000206B6CD11921424603F09EFBA0691621002203F099FBA0691521002203F094FB6C
:20625000A0690F21424603F08FFBA0690C21424603F08AFBA0691D21002203F085FBA069D5
:206270001C21002203F080FBA0691821002203F07BFB0022154628E01921424603F074FBCB
:20629000A0691621002203F06FFBA0691521002203F06AFBA0690F21424603F065FBA06959
:2062B0000C21424603F060FBA0691D21002203F05BFBA0691C21002203F056FBA06918212B
:2062D000002203F051FB01254246A069172103F04BFBA0691A21424603F046FB4FF4FA6088
:2062F00004F086FCA0691A21002203F03DFBC82004F07EFC206B04EB8001C1F8AC50401C25
:20631000052818BF206368D10025256301F0EEFE606904F1A80204F1BC03052153F8046F23
:2063300052F8047FBE4211D1491EF7D106212A4603F01AFB60690721012203F015FBA069B0
:206350001B212A4603F010FBBDE8F0810621012203F00AFB0526A0691921424603F004FB43
:20637000A06916212A4603F0FFFAA06915212A4603F0FAFAA0690F21424603F0F5FAA0692F
:206390000C212A4603F0F0FAA0691D212A4603F0EBFAA0691C212A4603F0E6FAA069182119
:2063B0002A4603F0E1FAA06917212A4603F0DCFAA0691A21424603F0D7FA4FF4FA6004F0F4
:2063D00017FCA0691A212A4603F0CEFAC82004F00FFC761EBFD101F089FEBDE8F081C0468C
:2063F000801A060000004080080200202DE9F0411C4615468C4208BF854282BF002300221D
:20641000E5E0002C08BF002D0AD100290EBF00286FF000006FF0000100F0E1F8BDE8F081F0
:206430005FF000085FF0000E002C08BF8D429CBF2C1C0025070C47EA01470E0CB44208BFAB
:20645000BD429EBF5FEA044444EA15445FEA0545070A47EA01670E0AB44208BFBD429EBF4A
:206470005FEA042444EA15645FEA0525470847EAC1774E08B44208BFBD4200F29380870823
:2064900047EA81778E08B44208BFBD427CD8C70847EA4177CE08B44208BFBD4266D8070985
:2064B00047EA01770E09B44208BFBD4250D8470947EAC1674E09B44208BFBD423AD88709CA
:2064D00047EA81678E09B44208BFBD4224D8C70947EA4167CE09B44208BFBD420DD8E6013C
:2064F00046EA5566EF01B14208BFB84201D3C01BB14158EB08085EEB0E0EA60146EA9566D2
:206510004FEA8517B14208BFB84201D3C01BB14158EB08084EEB0E0E660146EAD5666F0157
:20653000B14208BFB84201D3C01BB14158EB08084EEB0E0E260146EA15762F01B14208BF82
:20655000B84201D3C01BB14158EB08085EEB0E0EE60046EA5576EF00B14208BFB84201D380
:20657000C01BB14158EB08084EEB0E0EA60046EA9576AF00B14208BFB84201D3C01BB141B1
:2065900058EB08084EEB0E0E660046EAD5766F00B14208BFB84201D3C01BB14158EB08084B
:2065B0005EEB0E0EA14208BFA84201D3401BA14158EB08085EEB0E0EA34208BFAA423EBF74
:2065D0002D0A45EA0465240A89D3734642461E4617460B46024631463846BDE8F0817047F5
:2065F0002DE9F04FADF1240D079000F05DFD6148007803F03BFE604D0024012808D90A381C
:206610000FD0801E04D0401E0ED0401E09D006E004F0D6F9022804BF01210C1C06D069681F
:2066300005E005211F2401E0032107246960534A1068C0F38150012806D152F80C0C0127E0
:20665000020E07FA02F0044304F030FB524AFF230818401E471C28607F1E02F8013BFBD1FB
:20667000079A1268002702F0FF03FE2B20D0DDF81CC096463B4601260EF0FF02FF2A10D07E
:20669000904205D3914203D806FA02F2144201D002206CE017430EF0FF02DFF8FCE00EF8F7
:2066B00002305CF804EF5B1C0EF0FF02FE2AE5D1092001F047FA07980121A86005F12800BB
:2066D00003F016FE05F19806A8464FF0010A4FF0040B0025A9460AFA05F0044216D1074206
:2066F00004BF05F0FF0141F4C04104D02A480799405D51F82010224800F04CFFE8B24FF022
:20671000FF3104F071F8C6F8009001E0C6F800B0D8F800006D1C361D8542DCD904A804F077
:206730009DFA184C184A2078102104AB059008F10C0002F039FF684604F0C0FACDF80C90F3
